:020000040800F2
:1000000000500020AD1000084D1000084F100008EF
:10001000511000085310000855100008000000009F
:100020000000000000000000000000005710000861
:1000300059100008000000005B1000085D10000867
:10004000F5100008F5100008F5100008F51000087C
:10005000F5100008F5100008F5100008F51000086C
:10006000F5100008F5100008F5100008F51000085C
:10007000F5100008F5100008F5100008F51000084C
:10008000F5100008F5100008F5100008F51000083C
:10009000F5100008F5100008F5100008F51000082C
:1000A000F5100008F5100008F5100008F51000081C
:1000B000F5100008F5100008F5100008F51000080C
:1000C000F5100008F5100008F5100008F5100008FC
:1000D000F5100008F5100008F5100008F5100008EC
:1000E000F5100008F5100008F510000800000000E9
:1000F0000000000000000000000000000000000000
:0C01000000000000000000005FF808F1A3
:10010C0010B5054C237833B9044B13B10448AFF345
:10011C0000800123237010BD0C00002000000000A3
:10012C005011000808B5034B1BB103490348AFF34A
:10013C00008008BD000000001000002050110008D5
:10014C0038B50E4B054618784FF47A73B3FBF0F3C1
:10015C000B4A1068B0FBF3F000F080F8044658B975
:10016C000F2D09D8024629464FF0FF3000F042F817
:10017C00044B20461D6038BD012038BD0000002016
:10018C000800002004000020074A08B5136803206B
:10019C0043F01003136000F01BF80020FFF7D0FFB2
:1001AC0000F0F0FE002008BD00200240034A044B82
:1001BC0011681B780B441360704700BF28000020A7
:1001CC0000000020014B1868704700BF2800002079
:1001DC00074A0002D36800F4E06023F4E0631B04D8
:1001EC001B0C43F0BF6343F400330343D3607047ED
:1001FC0000ED00E0174B30B5DC68C4F30224C4F109
:10020C000703251D042B28BF0423062D4FF00105E1
:10021C0098BF002405FA03F303F1FF3388BF033CB6
:10022C001940A14005FA04F4013C2240002842EA9E
:10023C0001024FEA0212AFBF00F16040064B00F022
:10024C000F00D2B2A5BFD2B200F561401A5480F8AB
:10025C00002330BD00ED00E014ED00E00138B0F1FA
:10026C00807F0AD2F021064B064A586082F8231090
:10027C000020072298601A6070470120704700BF69
:10028C0010E000E000ED00E02DE9F74F00221646EB
:10029C00654BDFF8A4E1DFF8A4C14FF001080C684E
:1002AC0008FA06F808EA0404A0457FD14D68122D1F
:1002BC0000F0AF8000F28880022D00F0A7807CD87F
:1002CC00002D00F08E80012D00F09E804FF00F0964
:1002DC00FF2C93BF824606F18045083DD0F800B054
:1002EC0092BFB500D0F804B0AD0009FA05F82BEABE
:1002FC00080802FA05F588BF00F1040A48EA05056A
:10030C00CAF80050D1F804A01AF0805F4ED0474DC7
:10031C00464FAD6926F0030845F00105BD61BD6986
:10032C0008F1804805F00105019508F5803806F0C4
:10033C00030B019D4FEA8B0BD8F8085009FA0BF907
:10034C0025EA09093A4DA84268D005F58065A8420E
:10035C0066D005F58065A84264D005F58065A84295
:10036C000CBF0325042505FA0BF545EA0905C8F869
:10037C0008501D681AF4803F14BF2543A5431D6027
:10038C005D681AF4003F14BF2543A5435D609D686A
:10039C001AF4801F14BF2543A5439D60DD681AF431
:1003AC00001F14BF2C4325EA0404DC600136102E18
:1003BC007FF473AF03B0BDE8F08F032D22D0112D65
:1003CC0084D1CA68043281E71A4FBD4209D012D8D1
:1003DC00DFF86C904D4504D009F580394D457FF41C
:1003EC0075AF8A68C2B1012A0CBFC0F81080C0F882
:1003FC00148008226AE77545F3D06545F1D0DFF823
:10040C004490EBE7002261E7CA685FE7CA680832EC
:10041C005CE7CA680C3259E7042257E70025A2E7CB
:10042C000125A0E702259EE70004014000100240D0
:10043C0000080140000021100000311000003210B3
:10044C00000011100000221003682DE9F341DB07B6
:10045C00054610D42B689F075ED42B68190700F152
:10046C0095802B685A0700F1BF80EA69002A40F09A
:10047C002D81002014E0904C636803F00C03042BD6
:10048C0007D0636803F00C03082B0CD16368DE0300
:10049C0009D523689C03DDD56B68002BDAD10120CC
:1004AC0002B0BDE8F0816B68B3F5803F10D12368D2
:1004BC0043F480332360FFF785FE064623689803D8
:1004CC00C8D4FFF77FFE801B6428F7D90320E7E729
:1004DC009BB9236823F480332360236823F480239F
:1004EC002360FFF76FFE064623689903B2D5FFF72A
:1004FC0069FE801B6428F7D9E8E7B3F5A02F2368C1
:10050C0003D143F480232360D1E723F480332360A9
:10051C00236823F48023CDE7674C636813F00C0F3A
:10052C0007D0636803F00C03082B10D16368DA035F
:10053C000DD423689B0702D52B69012BAFD12368FF
:10054C006A6923F0F80343EAC203236085E72A694A
:10055C005A4B6AB101221A60FFF734FE0646236833
:10056C009F07ECD4FFF72EFE801B0228F7D9ADE7CE
:10057C001A60FFF727FE0646236898077FF56DAFD4
:10058C00FFF720FE801B0228F6D99FE7AA694A4C88
:10059C004B4BDAB101221A60FFF714FE0646636A70
:1005AC009B070DD54FF4FA52464B1B68B3FBF2F385
:1005BC00019300BF019B5A1E0192002BF9D150E709
:1005CC00FFF700FE801B0228E9D97FE71A60FFF7CE
:1005DC00F9FD0646636A9F077FF543AFFFF7F2FD0F
:1005EC00801B0228F6D971E7334CE369D80024D478
:1005FC000127E36943F08053E361E36903F080531F
:10060C000093009B304E3368D90518D5EB68012B4D
:10061C0026D1236A43F001032362FFF7D3FD41F295
:10062C0088368046236A9B073FD5002F3FF41DAFC9
:10063C00E36923F08053E36117E70027E2E73368AF
:10064C0043F480733360FFF7BDFD80463368DA05F1
:10065C00DCD4FFF7B7FDA0EB08006428F6D935E72A
:10066C00ABB9236A41F2883823F001032362236A71
:10067C0023F004032362FFF7A5FD0646236A9807BF
:10068C00D3D5FFF79FFD801B4045F7D91EE7052BFF
:10069C00236A03D143F004032362BAE723F0010376
:1006AC002362236A23F00403B6E7FFF78BFDA0EB6C
:1006BC000800B042B6D909E70010024000004242DF
:1006CC00800442420800002000700040224C636805
:1006DC0003F00C03082B3FF4E2AE00231F4E022A5A
:1006EC0033602BD1FFF76EFD0746236899011FD4A9
:1006FC002B6AB3F5803F05D16268A96822F40032F9
:10070C000A436260696A62680B4322F474121343F1
:10071C00636001233360FFF755FD054623689A019A
:10072C003FF5A7AEFFF74EFD401B0228F6D9CDE6EC
:10073C00FFF748FDC01B0228D7D9C7E6FFF742FDDB
:10074C00054623689B017FF594AEFFF73BFD401BEC
:10075C000228F6D9BAE600BF0010024060004242FF
:10076C0030B5194B87B002AC03F11005224618685E
:10077C005968083303C2AB421446F7D101238DF8F4
:10078C000430022311498DF805304B6803F00C023C
:10079C00082A17D1C3F3834206A80244DB0312F8DC
:1007AC00102C0CD54B680A48C3F34043504306AA9F
:1007BC00134413F8143CB0FBF3F007B030BD0548FC
:1007CC005043FAE70248F8E76811000800100240AD
:1007DC0000127A0000093D00544A2DE9F0411368DB
:1007EC00054603F007038B420E462AD329688C0773
:1007FC0034D4CA0747D44D4A136803F007039E420A
:10080C00C0F082802A684A4C12F0040F40F08780B6
:10081C00130706D563682A6923F4605343EAC203BD
:10082C006360FFF79DFF6368424AC3F30313D35C15
:10083C00D840414B18600020FFF782FC0020BDE837
:10084C00F081136823F007030B431360136803F064
:10085C0007039942CAD00120BDE8F081344B11F056
:10086C00040F1EBF5A6842F4E0625A60080742BF88
:10087C005A6842F460525A605A68A86822F0F00232
:10088C0002435A60B5E76A68294C012A23681CD1D7
:10089C0013F4003FDFD0636841F2883823F0030380
:1008AC0013436360FFF78EFC6B680746012B14D172
:1008BC00636803F00C03042B9DD0FFF783FCC01B73
:1008CC004045F5D90320BDE8F081022A02D113F08E
:1008DC00007FDFE713F0020FDCE7022B0FD1636818
:1008EC0003F00C03082B86D0FFF76CFCC01B4045B3
:1008FC00F5D9E7E7FFF766FCC01B4045E2D8636813
:10090C0013F00C0FF6D176E7136823F0070333438B
:10091C001360136803F007039E429CD172E763686F
:10092C00E96823F4E0630B43636071E70020024045
:10093C00001002407811000808000020044B054A02
:10094C005B68C3F30223D35C034A1068D84070473A
:10095C00001002408811000808000020044B054AD2
:10096C005B68C3F3C223D35C034A1068D84070475A
:10097C000010024088110008080000202DE9F04703
:10098C000568C2682B69016923F4405313432B613A
:10099C008368EA680B43416922F4B05222F00C02DE
:1009AC000B431343EB606B69826923F4407313436D
:1009BC006B61404B81469D424FF0190446D1FFF7C5
:1009CC00CDFF04FB00F3D9F804604FF06408B600C7
:1009DC00B3FBF6F3B3FBF8F31E01FFF7BFFF604365
:1009EC00D9F804309B00B0FBF3F7FFF7B7FF604377
:1009FC00D9F804309B00B0FBF3F3B3FBF8F308FB1E
:100A0C0013731B013233B3FBF8F303F0F007FFF75A
:100A1C00A5FF6043D9F804209200B0FBF2FAFFF76F
:100A2C009DFF6043D9F804309B00B0FBF3F3B3FB9C
:100A3C00F8F308FB13A31B013233B3FBF8F303F0F9
:100A4C000F033B433344AB60BDE8F087FFF776FF01
:100A5C0004FB00F3D9F804604FF06408B600B3FB54
:100A6C00F6F3B3FBF8F31E01FFF768FF6043D9F808
:100A7C0004309B00B0FBF3F7FFF760FF6043D9F83D
:100A8C0004309B00B0FBF3F3B3FBF8F308FB1373D8
:100A9C001B013233B3FBF8F303F0F007FFF74EFF03
:100AAC006043D9F804209200B0FBF2FAFFF746FF3E
:100ABC00B7E700BF00380140F8B504460E461746AC
:100ACC001D4621680B6836EA030301D10020F8BDEE
:100ADC006B1CF7D095B923680320DA6822F4D07226
:100AEC00DA605A6922F001025A61202384F8393005
:100AFC0084F83A30002384F83830F8BDFFF762FBF5
:100B0C00C01B8542DDD2E6E710B5044640B390F831
:100B1C00393003F0FF021BB980F8382000F054FA8A
:100B2C002423226884F83930D368204623F40053F8
:100B3C00D360FFF723FF236800201A6922F4904248
:100B4C001A615A6922F02A025A61DA6842F4005298
:100B5C00DA602023E06384F8393084F83A3010BD31
:100B6C00012010BD2DE9F0411F4690F839300446A4
:100B7C00202B0D4690464ED1002949D0002A47D053
:100B8C0090F83830012B46D0012380F83830002300
:100B9C00C363212380F83930FFF714FB0646A4F811
:100BAC002480A4F82680E38C9BB26BB93B4632467A
:100BBC0040212046FFF780FFA8B9202384F8380095
:100BCC0084F83930BDE8F081E38C3246013B9BB2AE
:100BDC00E384A3688021B3F5805F20463B460ED1A9
:100BEC00FFF76AFF10B10320BDE8F0812B88226863
:100BFC00C3F308035360236943B90235D3E7FFF706
:100C0C005BFF0028EFD123682A785A600135CAE7C8
:100C1C000120BDE8F0810220BDE8F081F0B591B073
:100C2C0002AF3C464D0089005E18B34232D110230E
:100C3C00CCB28DF82130130AE61D8DF820008DF80A
:100C4C0022308DF825502B0A08A801F10B058DF8E0
:100C5C002430F6B28DF823208DF826100DF12703E1
:100C6C00054404339D421AD100254FF6FF734AF216
:100C7C000107EAB2964223D810AA114401F8193C94
:100C8C001B0A01F8183C04F10901C9B200F070F913
:100C9C0011B0F0BD53F804EB44F804EFC5E757F876
:100CAC00042F4FEA126E03F804EC4FEA124E03F8CD
:100CBC0003EC4FEA122E03F802EC03F8012CD0E7F8
:100CCC00425D5340082213F0010F4FEA53039BB2CD
:100CDC0002F1FF3218BF7B4012F0FF02F3D1013555
:100CEC00C7E707B5003118BF012102AB43F8041D5B
:100CFC0000220121FFF792FF03B05DF804FB30B531
:100D0C004FF0807487B001940A24029164216343EC
:100D1C0004930A9B4A436343039205934FF4A24204
:100D2C0001AB05210546FFF779FF204600F05CF882
:100D3C00092300220193012101AB2846FFF76EFF26
:100D4C00204600F051F8012101AB00222846019108
:100D5C00FFF764FF07B030BD0023834200D170471A
:100D6C0000BF00BF00BF00BF00BF00BF00BF00BF7F
:100D7C0000BF00BF00BF00BF00BF00BF00BF00BF6F
:100D8C0000BF00BF00BF00BF00BF00BF00BF00BF5F
:100D9C0000BF00BF00BF00BF00BF00BF00BF00BF4F
:100DAC0000BF00BF00BF00BF00BF00BF00BF00BF3F
:100DBC0000BF00BF00BF00BF00BF00BF00BF00BF2F
:100DCC0000BF00BF00BF00BF00BF00BF00BF00BF1F
:100DDC0000BF00BF00BF00BF00BF00BF00BF00BF0F
:100DEC0000BF00BF0133B8E70146002208B58A42B4
:100DFC0000D108BD4FF47A70FFF7AEFF0132F6E771
:100E0C0010B590B02822002106A800F093F900211B
:100E1C00142201A800F08EF94FF480330122022431
:100E2C0007930E934FF4E01306A806920A920F93C1
:100E3C000D94FFF709FB0F234FF4806201930023FD
:100E4C00214601A80294039304920593FFF7C4FC76
:100E5C0010B010BD00B58BB0FFF796F9FFF7D0FFBF
:100E6C001022002106A800F065F9394B03249A6979
:100E7C0006A942F010029A619A69364802F01002F3
:100E8C000292029A9A694FF4E13542F020029A617B
:100E9C009A6902F020020392039A9A6942F00402C2
:100EAC009A619A6902F004020492049A9A6942F0D7
:100EBC0008029A619B69079403F008030593059B4C
:100ECC004FF460430693FFF7DFF94FF6FF1306A9C3
:100EDC00214806930794FFF7D7F94FF6FF7306A93D
:100EEC001E4806930794FFF7CFF94FF4805E4FF43A
:100EFC0080621B481B4B026180E828400C220023B7
:100F0C004261C3608361C361FFF7FEFD01210846A6
:100F1C00FFF7E7FE4FF47A70FFF766FF124D4FF4C0
:100F2C00FA7429462346224600940120FFF7E7FE77
:100F3C004FF4FA60FFF758FF0094234622460B4902
:100F4C000120FFF7DCFE4FF4FA60FFF74DFFE6E7F8
:100F5C00001002400010014000080140000C01404C
:100F6C002C0000200038014020A10700E05EF8FFB3
:100F7C000A464FF6FF7301460148FFF7F3BD00BF69
:100F8C002C0000200E4B82B09A6942F001029A614B
:100F9C009A6902F001020092009ADA6942F08052DA
:100FAC00DA61DB69074A03F080530193019B5368B4
:100FBC0023F0E06343F08063536002B0704700BFDE
:100FCC00001002400000014010B5044686B010220B
:100FDC00002102A800F0AEF82268174B9A4228D1E3
:100FEC0003F558439A6902A942F480429A619A69BE
:100FFC00124802F480420092009A9A6942F004026C
:10100C009A619B6903F004030193019B4FF40073F5
:10101C0002930223039303230593FFF735F94FF44F
:10102C0080630293002302A9044803930493FFF7FF
:10103C002BF906B010BD00BF00380140000801407C
:10104C007047FEE7FEE7FEE7FEE770477047704724
:10105C00FFF7ACB80F4B1A6842F001021A605968DE
:10106C000D4A0A405A601A6822F0847222F48032C7
:10107C001A601A6822F480221A605A6822F4FE025E
:10108C005A604FF41F029A604FF00062034B9A6053
:10109C00704700BF001002400000FFF800ED00E0B8
:1010AC00002103E00B4B5B58435004310A480B4BB7
:1010BC0042189A42F6D30A4A02E0002342F8043B53
:1010CC00084B9A42F9D3FFF7C5FF00F00FF8FFF772
:1010DC00C1FE704798110008000000200C00002091
:1010EC000C0000206C000020FEE7000070B500250D
:1010FC000C4E0D4CA41BA410A54209D100F022F8F3
:10110C0000250A4E0A4CA41BA410A54205D170BDA3
:10111C0056F8253098470135EEE756F825309847B4
:10112C000135F2E7901100089011000890110008A9
:10113C009411000803460244934200D1704703F80F
:10114C00011BF9E7F8B500BFF8BC08BC9E46704718
:0C115C00F8B500BFF8BC08BC9E46704708
:1011680002030405060708090A0B0C0D0E0F1010E0
:10117800000000000000000001020304060708093F
:08118800000000000102030455
:041190003101000821
:041194000D01000841
:0C119800010000001000000000A24A044A
:04000005080010AD32
:00000001FF
